{
  "contractName": "Dropbox",
  "abi": [
    {
      "inputs": [],
      "stateMutability": "nonpayable",
      "type": "constructor"
    },
    {
      "anonymous": false,
      "inputs": [
        {
          "indexed": false,
          "internalType": "address",
          "name": "addedTo",
          "type": "address"
        },
        {
          "indexed": false,
          "internalType": "string",
          "name": "path",
          "type": "string"
        },
        {
          "indexed": false,
          "internalType": "string",
          "name": "fileId",
          "type": "string"
        }
      ],
      "name": "FilePermissionAdded",
      "type": "event"
    },
    {
      "anonymous": false,
      "inputs": [
        {
          "indexed": false,
          "internalType": "address",
          "name": "removedTo",
          "type": "address"
        },
        {
          "indexed": false,
          "internalType": "string",
          "name": "path",
          "type": "string"
        },
        {
          "indexed": false,
          "internalType": "string",
          "name": "fileId",
          "type": "string"
        }
      ],
      "name": "FilePermissionRemoved",
      "type": "event"
    },
    {
      "anonymous": false,
      "inputs": [
        {
          "indexed": false,
          "internalType": "address",
          "name": "removedBy",
          "type": "address"
        },
        {
          "indexed": false,
          "internalType": "string",
          "name": "path",
          "type": "string"
        },
        {
          "indexed": false,
          "internalType": "string",
          "name": "fileId",
          "type": "string"
        }
      ],
      "name": "FileRemoved",
      "type": "event"
    },
    {
      "anonymous": false,
      "inputs": [
        {
          "indexed": false,
          "internalType": "address",
          "name": "addedBy",
          "type": "address"
        },
        {
          "indexed": false,
          "internalType": "string",
          "name": "path",
          "type": "string"
        },
        {
          "indexed": false,
          "internalType": "string",
          "name": "fileId",
          "type": "string"
        }
      ],
      "name": "FileUploadFailed",
      "type": "event"
    },
    {
      "anonymous": false,
      "inputs": [
        {
          "indexed": false,
          "internalType": "address",
          "name": "addedBy",
          "type": "address"
        },
        {
          "indexed": false,
          "internalType": "string",
          "name": "path",
          "type": "string"
        },
        {
          "indexed": false,
          "internalType": "string",
          "name": "fileId",
          "type": "string"
        }
      ],
      "name": "FileUploaded",
      "type": "event"
    },
    {
      "anonymous": false,
      "inputs": [
        {
          "indexed": false,
          "internalType": "address",
          "name": "addedBy",
          "type": "address"
        },
        {
          "indexed": false,
          "internalType": "string",
          "name": "path",
          "type": "string"
        },
        {
          "indexed": false,
          "internalType": "string",
          "name": "folderId",
          "type": "string"
        }
      ],
      "name": "FolderAdded",
      "type": "event"
    },
    {
      "anonymous": false,
      "inputs": [
        {
          "indexed": false,
          "internalType": "address",
          "name": "removedBy",
          "type": "address"
        },
        {
          "indexed": false,
          "internalType": "string",
          "name": "path",
          "type": "string"
        },
        {
          "indexed": false,
          "internalType": "string",
          "name": "folderId",
          "type": "string"
        }
      ],
      "name": "FolderRemoved",
      "type": "event"
    },
    {
      "inputs": [
        {
          "internalType": "uint256",
          "name": "pageNumber",
          "type": "uint256"
        },
        {
          "internalType": "string",
          "name": "path_",
          "type": "string"
        }
      ],
      "name": "getData",
      "outputs": [
        {
          "internalType": "uint256",
          "name": "totalPages",
          "type": "uint256"
        },
        {
          "internalType": "string[]",
          "name": "",
          "type": "string[]"
        }
      ],
      "stateMutability": "view",
      "type": "function",
      "constant": true
    },
    {
      "inputs": [
        {
          "internalType": "uint256",
          "name": "pageNumber",
          "type": "uint256"
        }
      ],
      "name": "getSharedData",
      "outputs": [
        {
          "internalType": "uint256",
          "name": "totalPages",
          "type": "uint256"
        },
        {
          "internalType": "string[]",
          "name": "",
          "type": "string[]"
        }
      ],
      "stateMutability": "view",
      "type": "function",
      "constant": true
    },
    {
      "inputs": [
        {
          "internalType": "string",
          "name": "fileId_",
          "type": "string"
        }
      ],
      "name": "getSingleFile",
      "outputs": [
        {
          "components": [
            {
              "internalType": "string",
              "name": "name",
              "type": "string"
            },
            {
              "internalType": "enum Types.FileType",
              "name": "fileType",
              "type": "uint8"
            },
            {
              "internalType": "uint256",
              "name": "uploadedOn",
              "type": "uint256"
            },
            {
              "internalType": "address",
              "name": "uploadedBY",
              "type": "address"
            },
            {
              "internalType": "string",
              "name": "fileExtension",
              "type": "string"
            },
            {
              "internalType": "string",
              "name": "dataHash",
              "type": "string"
            },
            {
              "internalType": "string",
              "name": "path",
              "type": "string"
            },
            {
              "internalType": "bool",
              "name": "canPublicAccess",
              "type": "bool"
            },
            {
              "internalType": "string",
              "name": "id",
              "type": "string"
            },
            {
              "internalType": "uint256",
              "name": "fileSize",
              "type": "uint256"
            }
          ],
          "internalType": "struct Types.File",
          "name": "",
          "type": "tuple"
        }
      ],
      "stateMutability": "view",
      "type": "function",
      "constant": true
    },
    {
      "inputs": [],
      "name": "getUserProfile",
      "outputs": [
        {
          "components": [
            {
              "internalType": "string",
              "name": "name",
              "type": "string"
            },
            {
              "internalType": "string",
              "name": "email",
              "type": "string"
            },
            {
              "internalType": "address",
              "name": "id_",
              "type": "address"
            },
            {
              "internalType": "uint256",
              "name": "storageAllocated",
              "type": "uint256"
            },
            {
              "internalType": "uint256",
              "name": "storageUsed",
              "type": "uint256"
            },
            {
              "internalType": "uint256",
              "name": "storageFree",
              "type": "uint256"
            }
          ],
          "internalType": "struct Types.User",
          "name": "",
          "type": "tuple"
        }
      ],
      "stateMutability": "view",
      "type": "function",
      "constant": true
    },
    {
      "inputs": [
        {
          "internalType": "string",
          "name": "name_",
          "type": "string"
        },
        {
          "internalType": "string",
          "name": "email_",
          "type": "string"
        }
      ],
      "name": "addUser",
      "outputs": [],
      "stateMutability": "nonpayable",
      "type": "function"
    },
    {
      "inputs": [
        {
          "internalType": "string",
          "name": "path_",
          "type": "string"
        },
        {
          "components": [
            {
              "internalType": "string",
              "name": "name",
              "type": "string"
            },
            {
              "internalType": "string",
              "name": "id",
              "type": "string"
            },
            {
              "internalType": "address",
              "name": "createdBy",
              "type": "address"
            },
            {
              "internalType": "uint256",
              "name": "createdOn",
              "type": "uint256"
            }
          ],
          "internalType": "struct Types.Folder",
          "name": "folder_",
          "type": "tuple"
        },
        {
          "internalType": "bool",
          "name": "isToAdd_",
          "type": "bool"
        }
      ],
      "name": "addRemoveFolder",
      "outputs": [],
      "stateMutability": "nonpayable",
      "type": "function"
    },
    {
      "inputs": [
        {
          "internalType": "string",
          "name": "path_",
          "type": "string"
        },
        {
          "components": [
            {
              "internalType": "string",
              "name": "name",
              "type": "string"
            },
            {
              "internalType": "enum Types.FileType",
              "name": "fileType",
              "type": "uint8"
            },
            {
              "internalType": "uint256",
              "name": "uploadedOn",
              "type": "uint256"
            },
            {
              "internalType": "address",
              "name": "uploadedBY",
              "type": "address"
            },
            {
              "internalType": "string",
              "name": "fileExtension",
              "type": "string"
            },
            {
              "internalType": "string",
              "name": "dataHash",
              "type": "string"
            },
            {
              "internalType": "string",
              "name": "path",
              "type": "string"
            },
            {
              "internalType": "bool",
              "name": "canPublicAccess",
              "type": "bool"
            },
            {
              "internalType": "string",
              "name": "id",
              "type": "string"
            },
            {
              "internalType": "uint256",
              "name": "fileSize",
              "type": "uint256"
            }
          ],
          "internalType": "struct Types.File[]",
          "name": "files_",
          "type": "tuple[]"
        }
      ],
      "name": "addFiles",
      "outputs": [],
      "stateMutability": "nonpayable",
      "type": "function"
    },
    {
      "inputs": [
        {
          "internalType": "string",
          "name": "path_",
          "type": "string"
        },
        {
          "internalType": "string",
          "name": "fileId_",
          "type": "string"
        }
      ],
      "name": "removeFile",
      "outputs": [],
      "stateMutability": "nonpayable",
      "type": "function"
    },
    {
      "inputs": [
        {
          "internalType": "string",
          "name": "path_",
          "type": "string"
        },
        {
          "internalType": "string",
          "name": "fileId_",
          "type": "string"
        }
      ],
      "name": "togglePublicLink",
      "outputs": [],
      "stateMutability": "nonpayable",
      "type": "function"
    },
    {
      "inputs": [
        {
          "internalType": "string",
          "name": "path_",
          "type": "string"
        },
        {
          "internalType": "string",
          "name": "fileId_",
          "type": "string"
        },
        {
          "internalType": "address",
          "name": "to_",
          "type": "address"
        },
        {
          "internalType": "bool",
          "name": "isToRemove_",
          "type": "bool"
        }
      ],
      "name": "filePermission",
      "outputs": [],
      "stateMutability": "nonpayable",
      "type": "function"
    }
  ],
  "bytecode": "0x608060405234801561001057600080fd5b5060008054600160a060020a03191633179055613a7e806100326000396000f3fe608060405234801561001057600080fd5b50600436106100bb576000357c0100000000000000000000000000000000000000000000000000000000900480636f61c744116100835780636f61c744146101385780636fb5ad191461014d5780638f9c46fb1461016057806399f553dc14610173578063a9b1dc771461018657600080fd5b806304ab2de1146100c0578063079eaf34146100d55780630f5a1a3a146100e85780631ba46ec3146101125780633411c56a14610125575b600080fd5b6100d36100ce366004613035565b6101a6565b005b6100d36100e33660046130ba565b61046e565b6100fb6100f636600461311e565b610586565b604051610109929190613193565b60405180910390f35b6100d361012036600461320b565b610789565b6100d36101333660046130ba565b610dd7565b610140610f57565b6040516101099190613409565b6100d361015b366004613480565b61115d565b6100fb61016e366004613563565b61165c565b6100d36101813660046130ba565b611875565b6101996101943660046135a0565b611ffc565b6040516101099190613613565b600160a060020a0382166102045760405160e560020a62461bcd02815260206004820152601260248201527f4164647265737320697320696e76616c6964000000000000000000000000000060448201526064015b60405180910390fd5b600160a060020a038216600090815260046020908152604080832080548251818502810185019093528083529192909190849084015b828210156102e65783829060005260206000200180546102599061370c565b80601f01602080910402602001604051908101604052809291908181526020018280546102859061370c565b80156102d25780601f106102a7576101008083540402835291602001916102d2565b820191906000526020600020905b8154815290600101906020018083116102b557829003601f168201915b50505050508152602001906001019061023a565b5050505090506000806102f98387612424565b91509150831561039b57816103235760405160e560020a62461bcd0281526004016101fb90613749565b61032d8382612501565b600160a060020a0386166000908152600460209081526040909120825161035a9391929190910190612d98565b507f064c260a4aa9bff37f76cad630d6509fc76af5896765ada7774512187c3eff6d85888860405161038e93929190613780565b60405180910390a1610465565b81156103ec5760405160e560020a62461bcd02815260206004820152600b60248201527f46696c652065786973747300000000000000000000000000000000000000000060448201526064016101fb565b600160a060020a038516600090815260046020908152604082208054600181018255908352918190208851610428939190910191890190612df5565b507f24611609e5cd333aac92e2e3179b95d1a355c7507370d867a9f56a3690ff377885888860405161045c93929190613780565b60405180910390a15b50505050505050565b336104be5760405160e560020a62461bcd02815260206004820152601060248201527f4164647265737320697320656d7074790000000000000000000000000000000060448201526064016101fb565b6040805160c0810182528381526020808201849052338284018190526107d06060840181905260006080850181905260a0850191909152908152600382529290922081518051929391926105159284920190612df5565b50602082810151805161052e9260018501920190612df5565b50604082015160028201805473ffffffffffffffffffffffffffffffffffffffff1916600160a060020a03909216919091179055606082015160038201556080820151600482015560a0909101516005909101555050565b60006060600083116105dd5760405160e560020a62461bcd02815260206004820152601060248201527f504e2073686f756c64206265203e20300000000000000000000000000000000060448201526064016101fb565b33600090815260046020908152604080832080548251818502810185019093528083529192909190849084015b828210156106b65783829060005260206000200180546106299061370c565b80601f01602080910402602001604051908101604052809291908181526020018280546106559061370c565b80156106a25780601f10610677576101008083540402835291602001916106a2565b820191906000526020600020905b81548152906001019060200180831161068557829003601f168201915b50505050508152602001906001019061060a565b5050505090506000806000806106cc8886612611565b935093509350935060008367ffffffffffffffff8111156106ef576106ef612f02565b60405190808252806020026020018201604052801561072257816020015b606081526020019060019003908161070d5790505b509050825b8281101561077957868181518110610741576107416137be565b602002602001015182828151811061075b5761075b6137be565b60200260200101819052508080610771906137f0565b915050610727565b5093989397509295505050505050565b6000805b8251811015610d7e5760008382815181106107aa576107aa6137be565b6020026020010151905060006003600033600160a060020a0316600160a060020a031681526020019081526020016000206040518060c00160405290816000820180546107f69061370c565b80601f01602080910402602001604051908101604052809291908181526020018280546108229061370c565b801561086f5780601f106108445761010080835404028352916020019161086f565b820191906000526020600020905b81548152906001019060200180831161085257829003601f168201915b505050505081526020016001820180546108889061370c565b80601f01602080910402602001604051908101604052809291908181526020018280546108b49061370c565b80156109015780601f106108d657610100808354040283529160200191610901565b820191906000526020600020905b8154815290600101906020018083116108e457829003601f168201915b50505091835250506002820154600160a060020a03166020820152600382015460408201526004820154606082015260059091015460809091015261012083015160a0820151919250111561095557600080fd5b6109998261010001516040518060400160405280600281526020017f666c0000000000000000000000000000000000000000000000000000000000008152506126b1565b15610d1b5760006005876040516109b09190613809565b9081526020016040518091039020805480602002602001604051908101604052809291908181526020016000905b82821015610a8a5783829060005260206000200180546109fd9061370c565b80601f0160208091040260200160405190810160405280929190818152602001828054610a299061370c565b8015610a765780601f10610a4b57610100808354040283529160200191610a76565b820191906000526020600020905b815481529060010190602001808311610a5957829003601f168201915b5050505050815260200190600101906109de565b5050505090506000610aa182856101000151612857565b90508060001914610af75760405160e560020a62461bcd02815260206004820152601060248201527f416c7265616479206578697374696e670000000000000000000000000000000060448201526064016101fb565b600588604051610b079190613809565b9081526040516020918190038201902061010086015181546001810183556000928352918390208151610b41949190930192910190612df5565b50836002856101000151604051610b589190613809565b90815260200160405180910390206000820151816000019080519060200190610b82929190612df5565b50602082015160018083018054909160ff1990911690836005811115610baa57610baa6135d5565b021790555060408201516002820155606082015160038201805473ffffffffffffffffffffffffffffffffffffffff1916600160a060020a0390921691909117905560808201518051610c07916004840191602090910190612df5565b5060a08201518051610c23916005840191602090910190612df5565b5060c08201518051610c3f916006840191602090910190612df5565b5060e082015160078201805460ff19169115159190911790556101008201518051610c74916008840191602090910190612df5565b5061012082015181600901559050507f2f82310531f67ec4eae39b4f0d4e2ea9a5e6da4bb8f084adb414ec441b761c5d3389866101000151604051610cbb93929190613780565b60405180910390a18361012001518360800151610cd89190613825565b3360009081526003602052604090206004015561012084015160a0840151610d00919061383d565b3360009081526003602052604090206005015550610d699050565b83610d25816137f0565b9450507fc277091624af1e44ced417c236593a3f01143e0cf1c33f0651f869a200c7ab883387846101000151604051610d6093929190613780565b60405180910390a15b50508080610d76906137f0565b91505061078d565b5081518103610dd25760405160e560020a62461bcd02815260206004820152601260248201527f57726f6e672066696c652c20666f726d6174000000000000000000000000000060448201526064016101fb565b505050565b6000610ed0600584604051610dec9190613809565b9081526020016040518091039020805480602002602001604051908101604052809291908181526020016000905b82821015610ec6578382906000526020600020018054610e399061370c565b80601f0160208091040260200160405190810160405280929190818152602001828054610e659061370c565b8015610eb25780601f10610e8757610100808354040283529160200191610eb2565b820191906000526020600020905b815481529060010190602001808311610e9557829003601f168201915b505050505081526020019060010190610e1a565b5050505083612424565b50905080610ef35760405160e560020a62461bcd0281526004016101fb90613749565b6000600283604051610f059190613809565b9081526040519081900360200181206007015460ff169150811590600290610f2e908690613809565b908152604051908190036020019020600701805491151560ff1990921691909117905550505050565b610f996040518060c0016040528060608152602001606081526020016000600160a060020a031681526020016000815260200160008152602001600081525090565b33610fe95760405160e560020a62461bcd02815260206004820152601060248201527f4164647265737320697320656d7074790000000000000000000000000000000060448201526064016101fb565b3360009081526003602052604090819020815160c081019092528054829082906110129061370c565b80601f016020809104026020016040519081016040528092919081815260200182805461103e9061370c565b801561108b5780601f106110605761010080835404028352916020019161108b565b820191906000526020600020905b81548152906001019060200180831161106e57829003601f168201915b505050505081526020016001820180546110a49061370c565b80601f01602080910402602001604051908101604052809291908181526020018280546110d09061370c565b801561111d5780601f106110f25761010080835404028352916020019161111d565b820191906000526020600020905b81548152906001019060200180831161110057829003601f168201915b50505091835250506002820154600160a060020a031660208201526003820154604082015260048201546060820152600590910154608090910152919050565b6111a082602001516040518060400160405280600281526020017f66640000000000000000000000000000000000000000000000000000000000008152506126b1565b6111ac576111ac613854565b60006005846040516111be9190613809565b9081526020016040518091039020805480602002602001604051908101604052809291908181526020016000905b8282101561129857838290600052602060002001805461120b9061370c565b80601f01602080910402602001604051908101604052809291908181526020018280546112379061370c565b80156112845780601f1061125957610100808354040283529160200191611284565b820191906000526020600020905b81548152906001019060200180831161126757829003601f168201915b5050505050815260200190600101906111ec565b50505050905060006112ae828560200151612857565b9050821561142f57806000191461130a5760405160e560020a62461bcd02815260206004820152601060248201527f416c7265616479206578697374696e670000000000000000000000000000000060448201526064016101fb565b60058560405161131a9190613809565b908152604051602091819003820190208582015181546001810183556000928352918390208151611352949190930192910190612df5565b5083600185602001516040516113689190613809565b90815260200160405180910390206000820151816000019080519060200190611392929190612df5565b5060208281015180516113ab9260018501920190612df5565b5060408281015160028301805473ffffffffffffffffffffffffffffffffffffffff1916600160a060020a03909216919091179055606090920151600390910155602085015190517f1e85d2f45e1b130666dba33d5d0624d81d5ce11217045135bd0afcf5cc5b4249916114229133918991613780565b60405180910390a1611655565b80196114805760405160e560020a62461bcd02815260206004820152600c60248201527f4e6f74206578697374696e67000000000000000000000000000000000000000060448201526064016101fb565b33600160a060020a0316600183838151811061149e5761149e6137be565b60200260200101516040516114b39190613809565b90815260405190819003602001902060020154600160a060020a03161461151f5760405160e560020a62461bcd02815260206004820152601560248201527f4f6e6c79206f776e65722063616e2064656c657465000000000000000000000060448201526064016101fb565b6115298282612501565b6005866040516115399190613809565b9081526020016040518091039020908051906020019061155a929190612d98565b50600085856020015160405160200161157492919061386d565b60405160208183030381529060405290506005816040516115959190613809565b908152602001604051809103902060006115af9190612e75565b600185602001516040516115c39190613809565b90815260405190819003602001902060006115de8282612e96565b6115ec600183016000612e96565b5060028101805473ffffffffffffffffffffffffffffffffffffffff19169055600060039091015560208501516040517fdaff7e4519d7641e4a40abbcf9dd5fa1063ff5393856d9af041ad99b9d06ac4d9161164b9133918a91613780565b60405180910390a1505b5050505050565b60006060600084116116b35760405160e560020a62461bcd02815260206004820152601060248201527f504e2073686f756c64206265203e20300000000000000000000000000000000060448201526064016101fb565b60006005846040516116c59190613809565b9081526020016040518091039020805480602002602001604051908101604052809291908181526020016000905b8282101561179f5783829060005260206000200180546117129061370c565b80601f016020809104026020016040519081016040528092919081815260200182805461173e9061370c565b801561178b5780601f106117605761010080835404028352916020019161178b565b820191906000526020600020905b81548152906001019060200180831161176e57829003601f168201915b5050505050815260200190600101906116f3565b5050505090506000806000806117b58986612611565b935093509350935060008367ffffffffffffffff8111156117d8576117d8612f02565b60405190808252806020026020018201604052801561180b57816020015b60608152602001906001900390816117f65790505b509050825b828110156118625786818151811061182a5761182a6137be565b6020026020010151828281518110611844576118446137be565b6020026020010181905250808061185a906137f0565b915050611810565b50939650929450505050505b9250929050565b60006002826040516118879190613809565b9081526020016040518091039020604051806101400160405290816000820180546118b19061370c565b80601f01602080910402602001604051908101604052809291908181526020018280546118dd9061370c565b801561192a5780601f106118ff5761010080835404028352916020019161192a565b820191906000526020600020905b81548152906001019060200180831161190d57829003601f168201915b5050509183525050600182015460209091019060ff166005811115611951576119516135d5565b6005811115611962576119626135d5565b8152600282015460208201526003820154600160a060020a031660408201526004820180546060909201916119969061370c565b80601f01602080910402602001604051908101604052809291908181526020018280546119c29061370c565b8015611a0f5780601f106119e457610100808354040283529160200191611a0f565b820191906000526020600020905b8154815290600101906020018083116119f257829003601f168201915b50505050508152602001600582018054611a289061370c565b80601f0160208091040260200160405190810160405280929190818152602001828054611a549061370c565b8015611aa15780601f10611a7657610100808354040283529160200191611aa1565b820191906000526020600020905b815481529060010190602001808311611a8457829003601f168201915b50505050508152602001600682018054611aba9061370c565b80601f0160208091040260200160405190810160405280929190818152602001828054611ae69061370c565b8015611b335780601f10611b0857610100808354040283529160200191611b33565b820191906000526020600020905b815481529060010190602001808311611b1657829003601f168201915b5050509183525050600782015460ff1615156020820152600882018054604090920191611b5f9061370c565b80601f0160208091040260200160405190810160405280929190818152602001828054611b8b9061370c565b8015611bd85780601f10611bad57610100808354040283529160200191611bd8565b820191906000526020600020905b815481529060010190602001808311611bbb57829003601f168201915b5050505050815260200160098201548152505090506000600584604051611bff9190613809565b9081526020016040518091039020805480602002602001604051908101604052809291908181526020016000905b82821015611cd9578382906000526020600020018054611c4c9061370c565b80601f0160208091040260200160405190810160405280929190818152602001828054611c789061370c565b8015611cc55780601f10611c9a57610100808354040283529160200191611cc5565b820191906000526020600020905b815481529060010190602001808311611ca857829003601f168201915b505050505081526020019060010190611c2d565b505050509050600080611cec8386612424565b9150915081611d105760405160e560020a62461bcd0281526004016101fb90613749565b611d1a8382612501565b600587604051611d2a9190613809565b90815260200160405180910390209080519060200190611d4b929190612d98565b50600285604051611d5c9190613809565b9081526040519081900360200190206000611d778282612e96565b60018201805460ff1916905560006002830181905560038301805473ffffffffffffffffffffffffffffffffffffffff19169055611db9906004840190612e96565b611dc7600583016000612e96565b611dd5600683016000612e96565b60078201805460ff19169055611def600883016000612e96565b600982016000905550507f6796822dfe3f9968e617bee1df1692d2e9959781f370942a2c790f36ceeb6ad0338787604051611e2c93929190613780565b60405180910390a133600090815260036020526040808220815160c08101909252805482908290611e5c9061370c565b80601f0160208091040260200160405190810160405280929190818152602001828054611e889061370c565b8015611ed55780601f10611eaa57610100808354040283529160200191611ed5565b820191906000526020600020905b815481529060010190602001808311611eb857829003601f168201915b50505050508152602001600182018054611eee9061370c565b80601f0160208091040260200160405190810160405280929190818152602001828054611f1a9061370c565b8015611f675780601f10611f3c57610100808354040283529160200191611f67565b820191906000526020600020905b815481529060010190602001808311611f4a57829003601f168201915b50505091835250506002820154600160a060020a03166020820152600382015460408201526004820154606082015260059091015460809182015261012087015190820151919250611fb89161383d565b3360009081526003602052604090206004015561012085015160a0820151611fe09190613825565b3360009081526003602052604090206005015550505050505050565b61205e604080516101408101909152606081526020810160008152602001600081526020016000600160a060020a0316815260200160608152602001606081526020016060815260200160001515815260200160608152602001600081525090565b61209d826040518060400160405280600281526020017f666c0000000000000000000000000000000000000000000000000000000000008152506126b1565b6120a9576120a9613854565b6002826040516120b99190613809565b9081526020016040518091039020604051806101400160405290816000820180546120e39061370c565b80601f016020809104026020016040519081016040528092919081815260200182805461210f9061370c565b801561215c5780601f106121315761010080835404028352916020019161215c565b820191906000526020600020905b81548152906001019060200180831161213f57829003601f168201915b5050509183525050600182015460209091019060ff166005811115612183576121836135d5565b6005811115612194576121946135d5565b8152600282015460208201526003820154600160a060020a031660408201526004820180546060909201916121c89061370c565b80601f01602080910402602001604051908101604052809291908181526020018280546121f49061370c565b80156122415780601f1061221657610100808354040283529160200191612241565b820191906000526020600020905b81548152906001019060200180831161222457829003601f168201915b5050505050815260200160058201805461225a9061370c565b80601f01602080910402602001604051908101604052809291908181526020018280546122869061370c565b80156122d35780601f106122a8576101008083540402835291602001916122d3565b820191906000526020600020905b8154815290600101906020018083116122b657829003601f168201915b505050505081526020016006820180546122ec9061370c565b80601f01602080910402602001604051908101604052809291908181526020018280546123189061370c565b80156123655780601f1061233a57610100808354040283529160200191612365565b820191906000526020600020905b81548152906001019060200180831161234857829003601f168201915b5050509183525050600782015460ff16151560208201526008820180546040909201916123919061370c565b80601f01602080910402602001604051908101604052809291908181526020018280546123bd9061370c565b801561240a5780601f106123df5761010080835404028352916020019161240a565b820191906000526020600020905b8154815290600101906020018083116123ed57829003601f168201915b505050505081526020016009820154815250509050919050565b600080612466836040518060400160405280600281526020017f666c0000000000000000000000000000000000000000000000000000000000008152506126b1565b61247257612472613854565b600061247e8585612857565b905080600019141580156124de575033600160a060020a031660028683815181106124ab576124ab6137be565b60200260200101516040516124c09190613809565b90815260405190819003602001902060030154600160a060020a0316145b156124ee5760019250905061186e565b60009250905061186e565b509250929050565b6060825182106125565760405160e560020a62461bcd02815260206004820152601260248201527f496e646578206f7574206f6620626f756e64000000000000000000000000000060448201526064016101fb565b815b60018451612566919061383d565b8110156125c15783612579826001613825565b81518110612589576125896137be565b60200260200101518482815181106125a3576125a36137be565b602002602001018190525080806125b9906137f0565b915050612558565b5082600184516125d1919061383d565b815181106125e1576125e16137be565b6020026020010160608152506000835111156126035760018351038352612608565b606092505b50815b92915050565b60008060008060006019865161262791906138de565b90506019865161263791906138f2565b9450801561264d5784612649816137f0565b9550505b6019935061265c60018861383d565b612667906019613906565b9250612674876019613906565b91508487111561268b5760009350600091506126a7565b848714801561269a5750600081115b156126a757809350855191505b5092959194509250565b60006126f2836040518060400160405280600181526020017f20000000000000000000000000000000000000000000000000000000000000008152506128b1565b51156127435760405160e560020a62461bcd02815260206004820152600e60248201527f53706163657320696e206e616d6500000000000000000000000000000000000060448201526064016101fb565b6000612784846040518060400160405280600181526020017f5f000000000000000000000000000000000000000000000000000000000000008152506128b1565b905060008151116127da5760405160e560020a62461bcd02815260206004820152601160248201527f4e6f7420696e2072657120666f726d617400000000000000000000000000000060448201526064016101fb565b6127fe816000815181106127f0576127f06137be565b6020026020010151846129cf565b61284d5760405160e560020a62461bcd02815260206004820152600a60248201527f4e6f7420612066696c650000000000000000000000000000000000000000000060448201526064016101fb565b5060019392505050565b6000600019815b84518112156128a95761288a8486838151811061287d5761287d6137be565b60200260200101516129cf565b15612897578091506128a9565b806128a181613925565b91505061285e565b509392505050565b606060006128e68460408051808201825260008082526020918201528151808301909252825182529182019181019190915290565b9050600061291b8460408051808201825260008082526020918201528151808301909252825182529182019181019190915290565b905060006129298383612a28565b67ffffffffffffffff81111561294157612941612f02565b60405190808252806020026020018201604052801561297457816020015b606081526020019060019003908161295f5790505b50905060005b81518110156129c5576129956129908585612ac9565b612ae8565b8282815181106129a7576129a76137be565b602002602001018190525080806129bd906137f0565b91505061297a565b5095945050505050565b6000816040516020016129e29190613809565b6040516020818303038152906040528051906020012083604051602001612a099190613809565b6040516020818303038152906040528051906020012014905092915050565b6000808260000151612a4c8560000151866020015186600001518760200151612b51565b612a569190613825565b90505b83516020850151612a6a9190613825565b8111612ac25781612a7a816137f0565b9250508260000151612ab1856020015183612a95919061383d565b8651612aa1919061383d565b8386600001518760200151612b51565b612abb9190613825565b9050612a59565b5092915050565b6040805180820190915260008082526020820152612ac2838383612c73565b60606000826000015167ffffffffffffffff811115612b0957612b09612f02565b6040519080825280601f01601f191660200182016040528015612b33576020820181803683370190505b5090506000602082019050612ac28185602001518660000151612d1e565b60008381868511612c5c5760208511612c0b5760008515612b9d576001612b7987602061383d565b612b84906008613906565b612b8f906002613a35565b612b99919061383d565b1990505b84518116600087612bae8b8b613825565b612bb8919061383d565b855190915083165b828114612bfd57818610612be557612bd88b8b613825565b9650505050505050612c6b565b85612bef816137f0565b965050838651169050612bc0565b859650505050505050612c6b565b508383206000905b612c1d868961383d565b8211612c5a57858320808203612c395783945050505050612c6b565b612c44600185613825565b9350508180612c52906137f0565b925050612c13565b505b612c668787613825565b925050505b949350505050565b60408051808201909152600080825260208201526000612ca58560000151866020015186600001518760200151612b51565b602080870180519186019190915251909150612cc1908261383d565b835284516020860151612cd49190613825565b8103612ce35760008552612d15565b83518351612cf19190613825565b85518690612d0090839061383d565b9052508351612d0f9082613825565b60208601525b50909392505050565b60208110612d565781518352612d35602084613825565b9250612d42602083613825565b9150612d4f60208261383d565b9050612d1e565b6000198115612d85576001612d6c83602061383d565b612d7890610100613a35565b612d82919061383d565b90505b9151835183169219169190911790915250565b828054828255906000526020600020908101928215612de5579160200282015b82811115612de55782518051612dd5918491602090910190612df5565b5091602001919060010190612db8565b50612df1929150612ed0565b5090565b828054612e019061370c565b90600052602060002090601f016020900481019282612e235760008555612e69565b82601f10612e3c57805160ff1916838001178555612e69565b82800160010185558215612e69579182015b82811115612e69578251825591602001919060010190612e4e565b50612df1929150612eed565b5080546000825590600052602060002090810190612e939190612ed0565b50565b508054612ea29061370c565b6000825580601f10612eb2575050565b601f016020900490600052602060002090810190612e939190612eed565b80821115612df1576000612ee48282612e96565b50600101612ed0565b5b80821115612df15760008155600101612eee565b60e060020a634e487b7102600052604160045260246000fd5b604051610140810167ffffffffffffffff81118282101715612f3f57612f3f612f02565b60405290565b6040516080810167ffffffffffffffff81118282101715612f3f57612f3f612f02565b604051601f8201601f1916810167ffffffffffffffff81118282101715612f9157612f91612f02565b604052919050565b600082601f830112612faa57600080fd5b813567ffffffffffffffff811115612fc457612fc4612f02565b612fd7601f8201601f1916602001612f68565b818152846020838601011115612fec57600080fd5b816020850160208301376000918101602001919091529392505050565b8035600160a060020a038116811461302057600080fd5b919050565b8035801515811461302057600080fd5b6000806000806080858703121561304b57600080fd5b843567ffffffffffffffff8082111561306357600080fd5b61306f88838901612f99565b9550602087013591508082111561308557600080fd5b5061309287828801612f99565b9350506130a160408601613009565b91506130af60608601613025565b905092959194509250565b600080604083850312156130cd57600080fd5b823567ffffffffffffffff808211156130e557600080fd5b6130f186838701612f99565b9350602085013591508082111561310757600080fd5b5061311485828601612f99565b9150509250929050565b60006020828403121561313057600080fd5b5035919050565b60005b8381101561315257818101518382015260200161313a565b83811115613161576000848401525b50505050565b6000815180845261317f816020860160208601613137565b601f01601f19169290920160200192915050565b60006040820184835260206040818501528185518084526060860191506060838202870101935082870160005b828110156131ee57605f198887030184526131dc868351613167565b955092840192908401906001016131c0565b509398975050505050505050565b80356006811061302057600080fd5b6000806040838503121561321e57600080fd5b823567ffffffffffffffff8082111561323657600080fd5b61324286838701612f99565b935060209150818501358181111561325957600080fd5b8501601f8101871361326a57600080fd5b80358281111561327c5761327c612f02565b83810261328a858201612f68565b918252828101850191858101908a8411156132a457600080fd5b86850192505b838310156133f8578235868111156132c157600080fd5b8501610140818d03601f190112156132d857600080fd5b6132e0612f1b565b88820135888111156132f157600080fd5b6132ff8e8b83860101612f99565b82525061330e604083016131fc565b898201526060820135604082015261332860808301613009565b606082015260a08201358881111561333f57600080fd5b61334d8e8b83860101612f99565b60808301525060c08201358881111561336557600080fd5b6133738e8b83860101612f99565b60a08301525060e08201358881111561338b57600080fd5b6133998e8b83860101612f99565b60c0830152506133ac6101008301613025565b60e082015261012080830135898111156133c557600080fd5b6133d38f8c83870101612f99565b61010084015250610140929092013591810191909152825291860191908601906132aa565b809750505050505050509250929050565b602081526000825160c0602084015261342560e0840182613167565b90506020840151601f198483030160408501526134428282613167565b915050600160a060020a03604085015116606084015260608401516080840152608084015160a084015260a084015160c08401528091505092915050565b60008060006060848603121561349557600080fd5b833567ffffffffffffffff808211156134ad57600080fd5b6134b987838801612f99565b945060208601359150808211156134cf57600080fd5b90850190608082880312156134e357600080fd5b6134eb612f45565b8235828111156134fa57600080fd5b61350689828601612f99565b82525060208301358281111561351b57600080fd5b61352789828601612f99565b60208301525061353960408401613009565b60408201526060830135606082015280945050505061355a60408501613025565b90509250925092565b6000806040838503121561357657600080fd5b82359150602083013567ffffffffffffffff81111561359457600080fd5b61311485828601612f99565b6000602082840312156135b257600080fd5b813567ffffffffffffffff8111156135c957600080fd5b612c6b84828501612f99565b60e060020a634e487b7102600052602160045260246000fd5b6006811061360f5760e060020a634e487b7102600052602160045260246000fd5b9052565b6020815260008251610140806020850152613632610160850183613167565b9150602085015161364660408601826135ee565b5060408501516060850152606085015161366b6080860182600160a060020a03169052565b506080850151601f19808685030160a08701526136888483613167565b935060a08701519150808685030160c08701526136a58483613167565b935060c08701519150808685030160e08701526136c28483613167565b935060e087015191506101006136db8188018415159052565b808801519250506101208187860301818801526136f88584613167565b970151959092019490945250929392505050565b60028104600182168061372057607f821691505b6020821081036137435760e060020a634e487b7102600052602260045260246000fd5b50919050565b6020808252600e908201527f46696c65206e6f7420666f756e64000000000000000000000000000000000000604082015260600190565b600160a060020a03841681526060602082015260006137a26060830185613167565b82810360408401526137b48185613167565b9695505050505050565b60e060020a634e487b7102600052603260045260246000fd5b60e060020a634e487b7102600052601160045260246000fd5b600060018201613802576138026137d7565b5060010190565b6000825161381b818460208701613137565b9190910192915050565b60008219821115613838576138386137d7565b500190565b60008282101561384f5761384f6137d7565b500390565b60e060020a634e487b7102600052600160045260246000fd5b6000835161387f818460208801613137565b7f2f0000000000000000000000000000000000000000000000000000000000000090830190815283516138b9816001840160208801613137565b01600101949350505050565b60e060020a634e487b7102600052601260045260246000fd5b6000826138ed576138ed6138c5565b500690565b600082613901576139016138c5565b500490565b6000816000190483118215151615613920576139206137d7565b500290565b60007f7fffffffffffffffffffffffffffffffffffffffffffffffffffffffffffffff8203613802576138026137d7565b600181815b808511156124f9578160001904821115613977576139776137d7565b8085161561398457918102915b6002909404939080029061395b565b6000826139a25750600161260b565b816139af5750600061260b565b81600181146139c557600281146139cf576139ec565b600191505061260b565b60ff8411156139e0576139e06137d7565b8360020a91505061260b565b5060208310610133831016604e8410600b8410161715613a0f575081810a61260b565b613a198383613956565b8060001904821115613a2d57613a2d6137d7565b029392505050565b6000613a418383613993565b939250505056fea2646970667358221220044c26c37f4d80aa34ba12d7d492660fd6fd13a6708b913e5d667408fc3cceec64736f6c634300080d0033",
  "immutableReferences": {},
  "source": "// SPDX-License-Identifier: GPL-3.0\npragma experimental ABIEncoderV2;\npragma solidity >=0.4.25 <0.9.0;\n\nimport \"./Types.sol\";\nimport \"./Helpers.sol\";\n\n// fd = folder\n// fl = file\n\n/**\n * @title Dropbox\n * @author Suresh Konakanchi\n * @dev Library for managing user stoarge. Dropbox in de-centralised system\n */\ncontract Dropbox {\n    address admin;\n    mapping(string => Types.Folder) folders;\n    mapping(string => Types.File) files;\n    mapping(address => Types.User) users; // User object which will have the limit of storage, current plan etc.\n    mapping(address => string[]) sharedFiles; // All files that were shared with an user\n    mapping(string => string[]) userData; // All files & folders that an user has uploaded\n\n    event FolderAdded(address addedBy, string path, string folderId);\n    event FolderRemoved(address removedBy, string path, string folderId);\n    event FileUploaded(address addedBy, string path, string fileId);\n    event FileUploadFailed(address addedBy, string path, string fileId);\n    event FileRemoved(address removedBy, string path, string fileId);\n    event FilePermissionAdded(address addedTo, string path, string fileId);\n    event FilePermissionRemoved(address removedTo, string path, string fileId);\n\n    /**\n     * @notice Set admin to one who deploy this contract\n     */\n    constructor() {\n        admin = msg.sender;\n    }\n\n    // Contract Functions\n\n    /**\n     * @notice To fetch all the avilable files / folders in the respective user dropbox\n     * UnderScore (_) won't be allowed in the name of the folder\n     * @dev Send the path where user want to fetch data\n     * @param pageNumber page number for which data is needed (1..2..3....n)\n     * @param path_ Folder Path where user need data\n     * @return totalPages Total pages available\n     * @return List of file / folder Id's\n     */\n    function getData(uint256 pageNumber, string memory path_)\n        public\n        view\n        returns (uint256 totalPages, string[] memory)\n    {\n        require(pageNumber > 0, \"PN should be > 0\");\n        string[] memory data_ = userData[path_];\n        (\n            uint256 pages,\n            uint256 pageLength_,\n            uint256 startIndex_,\n            uint256 endIndex_\n        ) = Helpers.getIndexes(pageNumber, data_);\n\n        string[] memory userData_ = new string[](pageLength_);\n        for (uint256 i = startIndex_; i < endIndex_; i++)\n            userData_[i] = data_[i];\n        return (pages, userData_);\n    }\n\n    /**\n     * @notice To fetch all the shared files in the respective user dropbox\n     * @param pageNumber page number for which data is needed (1..2..3....n)\n     * @return totalPages Total pages available\n     * @return List of file Id's\n     */\n    function getSharedData(uint256 pageNumber)\n        public\n        view\n        returns (uint256 totalPages, string[] memory)\n    {\n        require(pageNumber > 0, \"PN should be > 0\");\n        string[] memory data_ = sharedFiles[msg.sender];\n        (\n            uint256 pages,\n            uint256 pageLength_,\n            uint256 startIndex_,\n            uint256 endIndex_\n        ) = Helpers.getIndexes(pageNumber, data_);\n\n        string[] memory sData_ = new string[](pageLength_);\n        for (uint256 i = startIndex_; i < endIndex_; i++) sData_[i] = data_[i];\n        return (pages, sData_);\n    }\n\n    /**\n     * @notice To fetch single file details\n     * @dev Send the file ID\n     * @param fileId_ Id of the file\n     * @return File object\n     */\n    function getSingleFile(string memory fileId_)\n        public\n        view\n        returns (Types.File memory)\n    {\n        assert(isValid(fileId_, \"fl\"));\n        return files[fileId_];\n    }\n\n    /**\n     * @notice To fetch the current logged-in user's profile\n     * @dev User's metamask Id will be automatically sent in \"msg\" object\n     * @return User's object\n     */\n    function getUserProfile() public view returns (Types.User memory) {\n        require(msg.sender != address(0), \"Address is empty\");\n        return users[msg.sender];\n    }\n\n    /**\n     * @notice To add a new user to the system\n     * @dev Send user's email & name, Default stroage limits will be added\n     * @param name_ Name of the user\n     * @param email_ Email of the user\n     */\n    function addUser(string memory name_, string memory email_) public {\n        require(msg.sender != address(0), \"Address is empty\");\n        users[msg.sender] = Types.User({\n            name: name_,\n            email: email_,\n            id_: msg.sender,\n            storageAllocated: uint256(2000), // 2GB in MB's\n            storageUsed: 0, // In MB's\n            storageFree: uint256(2000) // In MB's\n        });\n    }\n\n    /**\n     * @notice To add / remove a folder in the respective user dropbox\n     * UnderScore (_) won't be allowed in the name of the folder\n     * @dev Take the path where user is adding / removing the folder\n     * It will be user's metamask address if adding / removing at root level\n     * @param path_ Path where user is adding / removing folder\n     * @param folder_ Folder object\n     * @param isToAdd_ Is the call for adding new folder or to remove existing folder\n     */\n    function addRemoveFolder(\n        string memory path_,\n        Types.Folder memory folder_,\n        bool isToAdd_\n    ) public {\n        assert(isValid(folder_.id, \"fd\"));\n        string[] memory data_ = userData[path_];\n        int256 matchIndex_ = getMatchIndex(data_, folder_.id);\n\n        if (isToAdd_) {\n            require(matchIndex_ == -1, \"Already existing\");\n            userData[path_].push(folder_.id);\n            folders[folder_.id] = folder_;\n            emit FolderAdded(msg.sender, path_, folder_.id);\n        } else {\n            require(matchIndex_ != -1, \"Not existing\");\n            require(\n                folders[data_[uint256(matchIndex_)]].createdBy == msg.sender,\n                \"Only owner can delete\"\n            );\n            userData[path_] = Helpers.removeElement(data_, matchIndex_);\n            string memory pathName_ = string(\n                abi.encodePacked(path_, \"/\", folder_.id)\n            );\n            delete userData[pathName_];\n            delete folders[folder_.id];\n            emit FolderRemoved(msg.sender, path_, folder_.id);\n        }\n    }\n\n    /**\n     * @notice To add a new file in the respective user dropbox\n     * UnderScore (_) won't be allowed in the name of the file\n     * @dev Take the path where user is adding the new file\n     * It will be user's metamask address if adding at root level\n     * @param path_ Path where user is adding the file\n     * @param files_ Array of File objects that need to be added\n     */\n    function addFiles(string memory path_, Types.File[] memory files_) public {\n        uint256 failureCount_ = 0;\n        for (uint256 i = 0; i < files_.length; i++) {\n            Types.File memory file_ = files_[i];\n            Types.User memory user_ = users[msg.sender];\n            require(user_.storageFree >= file_.fileSize);\n\n            if (isValid(file_.id, \"fl\")) {\n                string[] memory data_ = userData[path_];\n                int256 matchIndex_ = getMatchIndex(data_, file_.id);\n                require(matchIndex_ == -1, \"Already existing\");\n                userData[path_].push(file_.id);\n                files[file_.id] = file_;\n                emit FileUploaded(msg.sender, path_, file_.id);\n\n                // Updating the storage availabilities\n                users[msg.sender].storageUsed = (user_.storageUsed +\n                    file_.fileSize);\n                users[msg.sender].storageFree = (user_.storageFree -\n                    file_.fileSize);\n            } else {\n                failureCount_++;\n                emit FileUploadFailed(msg.sender, path_, file_.id);\n            }\n        }\n\n        if (failureCount_ == files_.length) revert(\"Wrong file, format\");\n    }\n\n    /**\n     * @notice To remove an existing file in the respective user dropbox\n     * UnderScore (_) won't be allowed in the name of the file\n     * @dev Take the path where user wish to remove the file\n     * It will be user's metamask address if removing at root level\n     * @param path_ Path where user is trying to remove the file\n     * @param fileId_ Id of the File that need to be removed\n     */\n    function removeFile(string memory path_, string memory fileId_) public {\n        Types.File memory fileObj_ = files[fileId_];\n        string[] memory data_ = userData[path_];\n\n        (bool exists_, int256 matchIndex_) = isFileExists(data_, fileId_);\n        require(exists_, \"File not found\");\n        userData[path_] = Helpers.removeElement(data_, matchIndex_);\n        delete files[fileId_];\n        emit FileRemoved(msg.sender, path_, fileId_);\n\n        // Updating the storage availabilities\n        Types.User memory user_ = users[msg.sender];\n        users[msg.sender].storageUsed = (user_.storageUsed - fileObj_.fileSize);\n        users[msg.sender].storageFree = (user_.storageFree + fileObj_.fileSize);\n    }\n\n    /**\n     * @notice To make a file accessible by public with a sharable link\n     * @dev Send the file ID & the current folder path\n     * @param path_ Folder Path where the file is existing\n     * @param fileId_ Id of the file\n     */\n    function togglePublicLink(string memory path_, string memory fileId_)\n        public\n    {\n        (bool exists_, ) = isFileExists(userData[path_], fileId_);\n        require(exists_, \"File not found\");\n        bool access_ = files[fileId_].canPublicAccess;\n        files[fileId_].canPublicAccess = !access_;\n    }\n\n    /**\n     * @notice To make a file accessible by public with a sharable link\n     * @dev Send the file ID & the current folder path\n     * @param path_ Folder Path where the file is existing\n     * @param fileId_ Id of the file\n     * @param to_ Receiver's metamask address\n     * @param isToRemove_ Is to remove file permission or to add permission\n     */\n    function filePermission(\n        string memory path_,\n        string memory fileId_,\n        address to_,\n        bool isToRemove_\n    ) public {\n        require(to_ != address(0), \"Address is invalid\");\n        string[] memory data_ = sharedFiles[to_];\n        (bool exists_, int256 matchIndex_) = isFileExists(data_, fileId_);\n        if (isToRemove_) {\n            require(exists_, \"File not found\");\n            sharedFiles[to_] = Helpers.removeElement(data_, matchIndex_);\n            emit FilePermissionRemoved(to_, path_, fileId_);\n        } else {\n            require(!exists_, \"File exists\");\n            sharedFiles[to_].push(fileId_);\n            emit FilePermissionAdded(to_, path_, fileId_);\n        }\n    }\n\n    // Internal Functions\n\n    /**\n     * @notice Modifier to check for file existance\n     * @param data_ Array of File / Folder Ids\n     * @param file_ File ID\n     * @return File exists or not & matchIndex if exists\n     */\n    function isFileExists(string[] memory data_, string memory file_)\n        internal\n        view\n        returns (bool, int256)\n    {\n        assert(isValid(file_, \"fl\"));\n        int256 matchIndex_ = getMatchIndex(data_, file_);\n        if (\n            matchIndex_ != -1 &&\n            files[data_[uint256(matchIndex_)]].uploadedBY == msg.sender\n        ) return (true, matchIndex_);\n        else return (false, matchIndex_);\n    }\n\n    /**\n     * @notice Checks if the file / folder id is in required format or not\n     * @dev For folder it starts with \"fd\" & for file it starts with \"fl\"\n     * @param id_ Id of the file / folder\n     * @param prefix_ Prefixed that is expected\n     * @return Returns true if all required conditions were met\n     */\n    function isValid(string memory id_, string memory prefix_)\n        internal\n        pure\n        returns (bool)\n    {\n        require(Helpers.substring(id_, \" \").length == 0, \"Spaces in name\");\n        string[] memory subStrings_ = Helpers.substring(id_, \"_\");\n        require(subStrings_.length > 0, \"Not in req format\");\n        require(Helpers.compareStrings(subStrings_[0], prefix_), \"Not a file\");\n        return true;\n    }\n\n    /**\n     * @notice Checks wether the file / folder id is present in the list or not\n     * @param data_ Array of strings that were present in the respective path\n     * @param id_ Id of the file / folder\n     * @return Returns index value if match found otherwise returns -1\n     */\n    function getMatchIndex(string[] memory data_, string memory id_)\n        internal\n        pure\n        returns (int256)\n    {\n        int256 matchIndex_ = -1;\n        for (int256 i = 0; i < int256(data_.length); i++) {\n            if (Helpers.compareStrings(id_, data_[uint256(i)])) {\n                matchIndex_ = i;\n                break;\n            }\n        }\n        return matchIndex_;\n    }\n}\n",
  "sourcePath": "/Users/sureshkonakanchi/Desktop/sample-decentralised-DropBox-ethereum/contracts/Dropbox.sol",
  "compiler": {
    "name": "solc",
    "version": "0.8.13+commit.abaa5c0e.Emscripten.clang"
  },
  "schemaVersion": "3.4.6",
  "updatedAt": "2022-05-04T07:45:42.753Z",
  "networkType": "ethereum",
  "devdoc": {
    "author": "Suresh Konakanchi",
    "details": "Library for managing user stoarge. Dropbox in de-centralised system",
    "kind": "dev",
    "methods": {
      "addFiles(string,(string,uint8,uint256,address,string,string,string,bool,string,uint256)[])": {
        "details": "Take the path where user is adding the new file It will be user's metamask address if adding at root level",
        "params": {
          "files_": "Array of File objects that need to be added",
          "path_": "Path where user is adding the file"
        }
      },
      "addRemoveFolder(string,(string,string,address,uint256),bool)": {
        "details": "Take the path where user is adding / removing the folder It will be user's metamask address if adding / removing at root level",
        "params": {
          "folder_": "Folder object",
          "isToAdd_": "Is the call for adding new folder or to remove existing folder",
          "path_": "Path where user is adding / removing folder"
        }
      },
      "addUser(string,string)": {
        "details": "Send user's email & name, Default stroage limits will be added",
        "params": {
          "email_": "Email of the user",
          "name_": "Name of the user"
        }
      },
      "filePermission(string,string,address,bool)": {
        "details": "Send the file ID & the current folder path",
        "params": {
          "fileId_": "Id of the file",
          "isToRemove_": "Is to remove file permission or to add permission",
          "path_": "Folder Path where the file is existing",
          "to_": "Receiver's metamask address"
        }
      },
      "getData(uint256,string)": {
        "details": "Send the path where user want to fetch data",
        "params": {
          "pageNumber": "page number for which data is needed (1..2..3....n)",
          "path_": "Folder Path where user need data"
        },
        "returns": {
          "_1": "List of file / folder Id's",
          "totalPages": "Total pages available"
        }
      },
      "getSharedData(uint256)": {
        "params": {
          "pageNumber": "page number for which data is needed (1..2..3....n)"
        },
        "returns": {
          "_1": "List of file Id's",
          "totalPages": "Total pages available"
        }
      },
      "getSingleFile(string)": {
        "details": "Send the file ID",
        "params": {
          "fileId_": "Id of the file"
        },
        "returns": {
          "_0": "File object"
        }
      },
      "getUserProfile()": {
        "details": "User's metamask Id will be automatically sent in \"msg\" object",
        "returns": {
          "_0": "User's object"
        }
      },
      "removeFile(string,string)": {
        "details": "Take the path where user wish to remove the file It will be user's metamask address if removing at root level",
        "params": {
          "fileId_": "Id of the File that need to be removed",
          "path_": "Path where user is trying to remove the file"
        }
      },
      "togglePublicLink(string,string)": {
        "details": "Send the file ID & the current folder path",
        "params": {
          "fileId_": "Id of the file",
          "path_": "Folder Path where the file is existing"
        }
      }
    },
    "title": "Dropbox",
    "version": 1
  },
  "userdoc": {
    "kind": "user",
    "methods": {
      "addFiles(string,(string,uint8,uint256,address,string,string,string,bool,string,uint256)[])": {
        "notice": "To add a new file in the respective user dropbox UnderScore (_) won't be allowed in the name of the file"
      },
      "addRemoveFolder(string,(string,string,address,uint256),bool)": {
        "notice": "To add / remove a folder in the respective user dropbox UnderScore (_) won't be allowed in the name of the folder"
      },
      "addUser(string,string)": {
        "notice": "To add a new user to the system"
      },
      "constructor": {
        "notice": "Set admin to one who deploy this contract"
      },
      "filePermission(string,string,address,bool)": {
        "notice": "To make a file accessible by public with a sharable link"
      },
      "getData(uint256,string)": {
        "notice": "To fetch all the avilable files / folders in the respective user dropbox UnderScore (_) won't be allowed in the name of the folder"
      },
      "getSharedData(uint256)": {
        "notice": "To fetch all the shared files in the respective user dropbox"
      },
      "getSingleFile(string)": {
        "notice": "To fetch single file details"
      },
      "getUserProfile()": {
        "notice": "To fetch the current logged-in user's profile"
      },
      "removeFile(string,string)": {
        "notice": "To remove an existing file in the respective user dropbox UnderScore (_) won't be allowed in the name of the file"
      },
      "togglePublicLink(string,string)": {
        "notice": "To make a file accessible by public with a sharable link"
      }
    },
    "version": 1
  }
}